{
  "contractName": "ComPayChannel",
  "abi": [
    {
      "constant": true,
      "inputs": [],
      "name": "_geniusTokenAddress",
      "outputs": [
        {
          "name": "",
          "type": "address"
        }
      ],
      "payable": false,
      "stateMutability": "view",
      "type": "function"
    },
    {
      "constant": false,
      "inputs": [],
      "name": "unpause",
      "outputs": [],
      "payable": false,
      "stateMutability": "nonpayable",
      "type": "function"
    },
    {
      "constant": true,
      "inputs": [
        {
          "name": "account",
          "type": "address"
        }
      ],
      "name": "isPauser",
      "outputs": [
        {
          "name": "",
          "type": "bool"
        }
      ],
      "payable": false,
      "stateMutability": "view",
      "type": "function"
    },
    {
      "constant": true,
      "inputs": [],
      "name": "paused",
      "outputs": [
        {
          "name": "",
          "type": "bool"
        }
      ],
      "payable": false,
      "stateMutability": "view",
      "type": "function"
    },
    {
      "constant": false,
      "inputs": [],
      "name": "renouncePauser",
      "outputs": [],
      "payable": false,
      "stateMutability": "nonpayable",
      "type": "function"
    },
    {
      "constant": false,
      "inputs": [
        {
          "name": "account",
          "type": "address"
        }
      ],
      "name": "addPauser",
      "outputs": [],
      "payable": false,
      "stateMutability": "nonpayable",
      "type": "function"
    },
    {
      "constant": false,
      "inputs": [],
      "name": "pause",
      "outputs": [],
      "payable": false,
      "stateMutability": "nonpayable",
      "type": "function"
    },
    {
      "inputs": [
        {
          "name": "_geniusTokenAddress",
          "type": "address"
        }
      ],
      "payable": false,
      "stateMutability": "nonpayable",
      "type": "constructor"
    },
    {
      "anonymous": false,
      "inputs": [
        {
          "indexed": true,
          "name": "payId",
          "type": "bytes32"
        },
        {
          "indexed": false,
          "name": "from",
          "type": "address"
        },
        {
          "indexed": false,
          "name": "to",
          "type": "address"
        },
        {
          "indexed": false,
          "name": "depositAmount",
          "type": "uint256"
        }
      ],
      "name": "OpenChannel",
      "type": "event"
    },
    {
      "anonymous": false,
      "inputs": [
        {
          "indexed": true,
          "name": "payId",
          "type": "bytes32"
        },
        {
          "indexed": false,
          "name": "sender",
          "type": "address"
        },
        {
          "indexed": false,
          "name": "amount",
          "type": "uint256"
        }
      ],
      "name": "Deposit",
      "type": "event"
    },
    {
      "anonymous": false,
      "inputs": [
        {
          "indexed": true,
          "name": "payId",
          "type": "bytes32"
        },
        {
          "indexed": false,
          "name": "receiver",
          "type": "address"
        },
        {
          "indexed": false,
          "name": "amount",
          "type": "uint256"
        }
      ],
      "name": "Transfer",
      "type": "event"
    },
    {
      "anonymous": false,
      "inputs": [
        {
          "indexed": false,
          "name": "account",
          "type": "address"
        }
      ],
      "name": "Paused",
      "type": "event"
    },
    {
      "anonymous": false,
      "inputs": [
        {
          "indexed": false,
          "name": "account",
          "type": "address"
        }
      ],
      "name": "Unpaused",
      "type": "event"
    },
    {
      "anonymous": false,
      "inputs": [
        {
          "indexed": true,
          "name": "account",
          "type": "address"
        }
      ],
      "name": "PauserAdded",
      "type": "event"
    },
    {
      "anonymous": false,
      "inputs": [
        {
          "indexed": true,
          "name": "account",
          "type": "address"
        }
      ],
      "name": "PauserRemoved",
      "type": "event"
    },
    {
      "constant": false,
      "inputs": [
        {
          "name": "_to",
          "type": "address"
        },
        {
          "name": "_depositAmount",
          "type": "uint256"
        },
        {
          "name": "_data",
          "type": "bytes"
        },
        {
          "name": "_dataLen",
          "type": "uint256"
        }
      ],
      "name": "OpenPaymentChannel",
      "outputs": [
        {
          "name": "",
          "type": "bytes32"
        }
      ],
      "payable": false,
      "stateMutability": "nonpayable",
      "type": "function"
    },
    {
      "constant": false,
      "inputs": [
        {
          "name": "_payId",
          "type": "bytes32"
        },
        {
          "name": "_amount",
          "type": "uint256"
        }
      ],
      "name": "ClosePaymentChannel",
      "outputs": [],
      "payable": false,
      "stateMutability": "nonpayable",
      "type": "function"
    }
  ],
  "bytecode": "0x608060405234801561001057600080fd5b50604051610d1f380380610d1f8339818101604052602081101561003357600080fd5b5051610047336001600160e01b0361007b16565b6001805460ff19169055600580546001600160a01b0319166001600160a01b03929092169190911790556000600355610154565b6100938160006100ca60201b6109f81790919060201c565b6040516001600160a01b038216907f6719d08c1888103bea251a4ed56406bd0c3e69723c8a1686e017e7bbe159b6f890600090a250565b6001600160a01b0381166100dd57600080fd5b6100f082826001600160e01b0361011f16565b156100fa57600080fd5b6001600160a01b0316600090815260209190915260409020805460ff19166001179055565b60006001600160a01b03821661013457600080fd5b506001600160a01b03166000908152602091909152604090205460ff1690565b610bbc806101636000396000f3fe608060405234801561001057600080fd5b50600436106100935760003560e01c80635c975abb116100665780635c975abb146101975780636ef8d66d1461019f578063715764cc146101a757806382dc1ec4146101ca5780638456cb59146101f057610093565b8063183e6c5b1461009857806322357597146100bc5780633f4ba83a1461015357806346fbf68e1461015d575b600080fd5b6100a06101f8565b604080516001600160a01b039092168252519081900360200190f35b610141600480360360808110156100d257600080fd5b6001600160a01b038235169160208101359181019060608101604082013564010000000081111561010257600080fd5b82018360208201111561011457600080fd5b8035906020019184600183028401116401000000008311171561013657600080fd5b919350915035610207565b60408051918252519081900360200190f35b61015b610419565b005b6101836004803603602081101561017357600080fd5b50356001600160a01b0316610479565b604080519115158252519081900360200190f35b610183610491565b61015b61049b565b61015b600480360360408110156101bd57600080fd5b50803590602001356104a6565b61015b600480360360208110156101e057600080fd5b50356001600160a01b03166106da565b61015b6106f8565b6004546001600160a01b031681565b6000841561025c576040805162461bcd60e51b815260206004820152601760248201527f5f6465706f736974416d6f756e74206973206e6f742030000000000000000000604482015290519081900360640190fd5b600380546001810190915560408051602080820193909352815180820384018152818301808452815191850191909120610100830184523382526001600160a01b038b166060840152608083018a90528351601f890186900486028101860190945287845293909260a0909201919088908890819084018382808284376000920182905250938552505050602080830187905243604093840152848252600280825291839020845181546001600160a01b039182166001600160a01b0319918216178355868401516001840180549190931691161790559284015191830191909155606083015180516103559260038501920190610a44565b506080820151600482015560a090910151600590910155604080513381526001600160a01b0389166020820152808201889052905182917f04b3b91985cb9e62d5d98e3600e4a445b8bda220b92e7f7914e44fd9aa8c3b15919081900360600190a26004546103d5906001600160a01b031633308963ffffffff61075b16565b6040805133815260208101889052815183927f182fa52899142d44ff5c45a6354d3b3e868d5b07db6a65580b39bd321bdaf8ac928290030190a29695505050505050565b61042233610479565b61042b57600080fd5b60015460ff1661043a57600080fd5b6001805460ff191690556040805133815290517f5db9ee0a495bf2e6ff9c91a7834c1ba4fdd244a5e8aa4e537bd38aeae4b073aa9181900360200190a1565b600061048b818363ffffffff6107f116565b92915050565b60015460ff165b90565b6104a433610826565b565b60008281526002602052604090206001015482906001600160a01b03163314610516576040805162461bcd60e51b815260206004820152601a60248201527f6d73672e73656e646572206973206e6f74206f70657261746f72000000000000604482015290519081900360640190fd5b81610520576106d5565b610528610ac2565b600084815260026020818152604092839020835160c08101855281546001600160a01b03908116825260018084015490911682850152828501548287015260038301805487516101009382161593909302600019011695909504601f8101859004850282018501909652858152909491936060860193919290918301828280156105f35780601f106105c8576101008083540402835291602001916105f3565b820191906000526020600020905b8154815290600101906020018083116105d657829003601f168201915b50505050508152602001600482015481526020016005820154815250509050806040015183116106545760405162461bcd60e51b8152600401808060200182810382526023815260200180610b656023913960400191505060405180910390fd5b6106638482602001518561086e565b8060400151831015610684576106848482600001518584604001510361086e565b6000848152600260208190526040822080546001600160a01b031990811682556001820180549091169055908101829055906106c36003830182610b0a565b50600060048201819055600590910155505b505050565b6106e333610479565b6106ec57600080fd5b6106f5816108d3565b50565b61070133610479565b61070a57600080fd5b60015460ff161561071a57600080fd5b6001805460ff1916811790556040805133815290517f62e78cea01bee320cd4e420270b5ea74000d11b0c9f74754ebdbfc544b05a2589181900360200190a1565b604080516323b872dd60e01b81526001600160a01b0385811660048301528481166024830152604482018490529151918616916323b872dd916064808201926020929091908290030181600087803b1580156107b657600080fd5b505af11580156107ca573d6000803e3d6000fd5b505050506040513d60208110156107e057600080fd5b50516107eb57600080fd5b50505050565b60006001600160a01b03821661080657600080fd5b506001600160a01b03166000908152602091909152604090205460ff1690565b61083760008263ffffffff61091b16565b6040516001600160a01b038216907fcd265ebaf09df2871cc7bd4133404a235ba12eff2041bb89d9c714a2621c7c7e90600090a250565b60045461088b906001600160a01b0316838363ffffffff61096316565b604080516001600160a01b038416815260208101839052815185927f4c13017ee95afc4bbd8a701dd9fbc9733f1f09f5a1b5438b5b9abd48e4c92d78928290030190a2505050565b6108e460008263ffffffff6109f816565b6040516001600160a01b038216907f6719d08c1888103bea251a4ed56406bd0c3e69723c8a1686e017e7bbe159b6f890600090a250565b6001600160a01b03811661092e57600080fd5b61093882826107f1565b61094157600080fd5b6001600160a01b0316600090815260209190915260409020805460ff19169055565b826001600160a01b031663a9059cbb83836040518363ffffffff1660e01b815260040180836001600160a01b03166001600160a01b0316815260200182815260200192505050602060405180830381600087803b1580156109c357600080fd5b505af11580156109d7573d6000803e3d6000fd5b505050506040513d60208110156109ed57600080fd5b50516106d557600080fd5b6001600160a01b038116610a0b57600080fd5b610a1582826107f1565b15610a1f57600080fd5b6001600160a01b0316600090815260209190915260409020805460ff19166001179055565b828054600181600116156101000203166002900490600052602060002090601f016020900481019282601f10610a8557805160ff1916838001178555610ab2565b82800160010185558215610ab2579182015b82811115610ab2578251825591602001919060010190610a97565b50610abe929150610b4a565b5090565b6040518060c0016040528060006001600160a01b0316815260200160006001600160a01b03168152602001600081526020016060815260200160008152602001600081525090565b50805460018160011615610100020316600290046000825580601f10610b3057506106f5565b601f0160209004906000526020600020908101906106f591905b61049891905b80821115610abe5760008155600101610b5056fe6465706f736974656420616d6f756e74206973206e6f742073756666696369656e742ea265627a7a72305820b3207cf509ec6adc30de8cd0c075722049e9d5407ee77312d8861aef1cc6d52864736f6c634300050a0032",
  "source": "pragma solidity ^0.5.1;\n\nimport \"openzeppelin-solidity/contracts/math/SafeMath.sol\";\nimport \"openzeppelin-solidity/contracts/token/ERC20/IERC20.sol\";\nimport \"openzeppelin-solidity/contracts/token/ERC20/SafeERC20.sol\";\nimport \"openzeppelin-solidity/contracts/lifecycle/Pausable.sol\";\nimport \"./helper/GNUSToken.sol\";\n/**\n * @title ComPayChannel contract\n * @notice A ComPayChannel is contract for implementing simple payment channel.    \n */\ncontract ComPayChannel is  Pausable {\n    using SafeMath for uint;\n    using SafeERC20 for IERC20;\n\n    struct PayChannel {\n        // corresponding to source address. Owner of this address creates payment channel\n        address sender;\n        // corresponding to destination address. Owner of destination address will receive Genius Token by closing payment channel\n        address receiver;                   \n        // amount deposited by source\n        uint depositAmount;\n        // data needed for computing\n        bytes data;\n        // length of data\n        uint dataLen; \n        // block number when channel is created.\n        uint blockNumber;\n    }\n    \n    mapping(bytes32 => PayChannel) private paychannels;\n    uint private _id;\n    address public _geniusTokenAddress;\n\n    GNUSToken private geniusToken;\n    \n    // Define events for opening channel, depositing genius token, and closing channel.\n    event OpenChannel(\n        bytes32 indexed payId,                \n        address from,\n        address to,\n        uint depositAmount\n    );\n\n    \n    event Deposit(bytes32 indexed payId, address sender, uint amount);\n    event Transfer(bytes32 indexed payId, address receiver, uint amount);\n    /**\n     * @notice ComPayChannel constructor\n     * @param _geniusTokenAddress address of genius token contract\n     */\n    constructor(address _geniusTokenAddress) public {\n         geniusToken = GNUSToken(_geniusTokenAddress);        \n         _id = 0;\n    }\n\n    /**\n     * @notice  Throws if called by any account other than sender of payment chanenl\n     * @param _payId id of the Payment channel to be operated\n     */\n    modifier onlySender(bytes32 _payId) {\n        require(msg.sender == paychannels[_payId].sender, \"msg.sender is not operator\");\n        _;\n    }    \n\n    /**\n     * @notice  Throws if called by any account other than receiver of payment chanenl\n     * @param _payId id of the Payment channel to be operated\n     */\n    modifier onlyReceiver(bytes32 _payId) {\n        require(msg.sender == paychannels[_payId].receiver, \"msg.sender is not operator\");\n        _;\n    }  \n\n    /**\n     * @notice Open a payment channel with deposit genius token    \n     * @param _to address to be transfer genius token\n     * @param _depositAmount deposit amount for genius token\n     * @param _data bytes of open channel request data     \n     * @param _dataLen length of data\n     */\n     function OpenPaymentChannel(address _to, uint _depositAmount, bytes calldata _data, uint _dataLen) external returns(bytes32){\n          require(_depositAmount == 0, \"_depositAmount is not 0\");\n          bytes32 c = keccak256(abi.encodePacked(_id++));      \n          paychannels[c] = PayChannel(msg.sender, _to, _depositAmount,  _data, _dataLen, block.number);\n          emit OpenChannel(c, msg.sender, _to, _depositAmount);\n          // deposit genius token          \n          IERC20(_geniusTokenAddress).safeTransferFrom(msg.sender, address(this), _depositAmount);\n          emit Deposit( c, msg.sender, _depositAmount);\n          return c;\n     }\n\n     /**\n     * @notice Close a payment channel     \n     * @param _amount amount for genius token cliam          \n     * @param _payId  id of payment channel created by sender\n     */\n     function ClosePaymentChannel(bytes32 _payId, uint _amount) public onlyReceiver(_payId){\n        \n        if (_amount == 0) { return; }                \n        PayChannel memory c = paychannels[_payId];\n\n        require(_amount > c.depositAmount, \"deposited amount is not sufficient.\");                        \n        _transferGNUS(_payId, c.receiver, _amount);\n        // refund remainder genius token to sender address.\n        if(_amount <c.depositAmount)        \n          {\n              _transferGNUS(_payId, c.sender, c.depositAmount - _amount);\n          } \n        delete paychannels[_payId];\n     }\n    /**\n    * @notice transfer genius token\n    * @param _payId payment channel id\n    * @param _receiver address to receive genius token\n    * @param _amount amount for withdraw\n     */\n    function _transferGNUS(bytes32 _payId, address _receiver, uint _amount) internal {        \n        // geniusToken.safeTransferFrom(address(this), _receiver , _amount);\n        IERC20(_geniusTokenAddress).safeTransfer(_receiver, _amount);\n        emit Transfer(_payId, _receiver, _amount);\n    }\n}\n",
  "sourcePath": "/media/ubuntu/ext20/Work/pay-channel-eth/contracts/ComPayChannel.sol",
  "compiler": {
    "name": "solc",
    "version": "0.5.10+commit.5a6ea5b1.Emscripten.clang"
  },
  "schemaVersion": "3.0.23",
  "updatedAt": "2020-10-20T15:34:22.422Z",
  "networkType": "ethereum",
  "devdoc": {
    "methods": {
      "ClosePaymentChannel(bytes32,uint256)": {
        "params": {
          "_amount": "amount for genius token cliam          ",
          "_payId": "id of payment channel created by sender"
        }
      },
      "OpenPaymentChannel(address,uint256,bytes,uint256)": {
        "params": {
          "_data": "bytes of open channel request data     ",
          "_dataLen": "length of data",
          "_depositAmount": "deposit amount for genius token",
          "_to": "address to be transfer genius token"
        }
      },
      "constructor": {
        "params": {
          "_geniusTokenAddress": "address of genius token contract"
        }
      },
      "pause()": {
        "details": "called by the owner to pause, triggers stopped state"
      },
      "paused()": {
        "return": "true if the contract is paused, false otherwise."
      },
      "unpause()": {
        "details": "called by the owner to unpause, returns to normal state"
      }
    },
    "title": "ComPayChannel contract"
  },
  "userdoc": {
    "methods": {
      "ClosePaymentChannel(bytes32,uint256)": {
        "notice": "Close a payment channel     "
      },
      "OpenPaymentChannel(address,uint256,bytes,uint256)": {
        "notice": "Open a payment channel with deposit genius token    "
      },
      "constructor": "ComPayChannel constructor"
    },
    "notice": "A ComPayChannel is contract for implementing simple payment channel.    "
  }
}